:020000040000FA
:1000000000000228472A08008E00030E83018D009D
:100010000A088A018C000408AD0083120B1D7B289E
:100020003C0881000B11420803191A2842089C0061
:100030001C03C20043080319212843089C001C0329
:10004000C30044080319282844089C001C03C4006A
:1000500034089C0035089D0001301C07B400B50130
:10006000B50D1D08B50734089C0035089D00033008
:100070001D02031D3D28E8301C02031C5D283408C6
:100080009C0035089D0018309C07FC300318FD309B
:100090009D071C08B4001D08B50034089C003508F5
:1000A0009D0002309C0703189D0A1C08B4001D081F
:1000B000B5003A089C001C0ABA0034089C003508B8
:1000C0009E0001301E02031D6728F4301C029F01B0
:1000D000031C1F141F080030031901309C00B900D5
:1000E0000830831286063F0803197B283908031954
:1000F0007B28043085062D0884000C088A008301C3
:100100000D0E83008E0E0E0E090083128B133A081B
:10011000A000BA018B1720080319A228A003B60A71
:100120003C303602031C9628B601B70A3C30370231
:10013000031C9C28B701B80A18303802031C8B280E
:10014000B8018B288312851183168515A00120081C
:10015000031DCA283F080319CA2820082E3EA10003
:1001600000300318013EA2002108840083132218E6
:100170008317003080002008313EA10000300318B2
:10018000013EA20021088400831322188317013046
:10019000800061292008313EA10000300318013E93
:1001A000A200210884008313221883170008A300EB
:1001B00020082E3EA40000300318013EA5002408AC
:1001C00084008313251883170008A60020089F3E8B
:1001D000A70003300318013EA80027089A0028084A
:1001E0009B0080305423A9000030A8000130A700F4
:1001F0002908003C03190129A70DA80D013E031C85
:10020000FC2883120508A900A7050030A8052708C7
:100210002804003003190130A900A700013023028F
:10022000031C50290530230203185029A303013071
:100230008A001E30230703188A0A820022292C29EB
:1002400037294529270803192929A6010230A300C7
:1002500053290130A30053292708031934290330F7
:10026000A3000130A60053290130A3005329270819
:10027000031942290330A300FE3026020318532934
:10028000A60A53290430A3005329270803194B2930
:100290000330A30053290130A300FF30A6005329E7
:1002A0000130A300A60124088400831325188317B6
:1002B000260880002108840083132218831723084E
:1002C0008000A00A03302002031CA7288316851192
:1002D0003F0803198C29A0012008031D72293F083B
:1002E000031D87292008313EA10000300318013E7C
:1002F000A200210884008313221883170008A3009A
:10030000033A031D8729BF010130C1008C29A00ACF
:1003100003302002031C6C293308A000013A0319A2
:10032000C0013308A000013A0319992983128511ED
:10033000A229390C03189E2983128511031CA229B6
:100340008312851508002E08A0002F08A100A20125
:100350002008FF3A031DD129AE010130A2003F0859
:100360000319B629BF010130C100F7293008A300E5
:1003700023080319C929FF3023020318C929BD0A1C
:100380003C303D020318BD010130C0000130C10006
:10039000F729B601B70A3C303702031CF729B70129
:1003A000F72921302002031CF7290130A2003F0861
:1003B0000319DE29BF010130C100F7293008A00070
:1003C00020080319F129FF3020020318F129BD0A82
:1003D0003C303D020318BD010130C0000130C100B6
:1003E000F729B601B70A3C3037020318B7012208D3
:1003F000031D202A2108FF3A031D202AAF013F08D0
:100400000319062ABF010130C100462A3008A000A6
:1004100020080319192AFF3020020318192ABE0ADE
:1004200018303E020318BE010130C0000130C10087
:10043000462AB80A18303802031C462AB801462A50
:100440002208031D462A21302102031C462A3F08A8
:1004500003192E2ABF010130C100462A3008A0002E
:1004600020080319412AFF3020020318412ABE0A3E
:1004700018303E020318BE010130C0000130C10037
:10048000462AB80A183038020318B80108000A30A2
:10049000BC00831686011430850083128601850115
:1004A00083160108AA00C030AA0501302A04810081
:1004B000B601B701B801B401B501B901BA01BD0176
:1004C000BE01BF01C001C1013D30C2000530C30003
:1004D000C930C400BB01AA012A082E3EAB0000307F
:1004E0000318013EAC002B08840083132C188317DB
:1004F000003080002A08313EAB0000300318013E76
:10050000AC002B08840083132C1883170130800063
:10051000AA0A03302A02031C6C2A3C0883128100B9
:1005200086158B168B174208031D992A3D30C20091
:1005300085204308031D9F2A0530C300D8224408A4
:10054000031DA52AC930C400A3213E08031DAF2AFC
:100550003D08031DAF2ABF01C101C001CF2A3E08DB
:100560003806031DCE2A3D083706031DCE2A410852
:10057000031DCF2A4008031DCF2A3008AA00031903
:10058000C52AFF302A02031CCF2A5A30BF0001308F
:10059000C1008312051583160511CF2AC1013F083A
:1005A000031D932A8312051583160515932A080047
:1005B000FF3083128600051400000000831205102E
:1005C0003B08031DFD2A85140000000083128510DE
:1005D0003008A3000319F32AFF3023020318F32A7B
:1005E0003D08A300F52A3708A30023088823A300A9
:1005F000672383128600BB0A532B3B08013A031D75
:10060000162B3008A30003190C2BFF30230203180C
:100610000C2B3D08A3000E2B3708A30023087923D9
:10062000A300672383128600BB0A532B3B08023AC0
:10063000031D2F2B3008A3000319252BFF302302A5
:100640000318252B3E08A300272B3808A3002308F6
:100650008823A300672383128600BB0A532B3B0821
:10066000033A031D532B3008A30003193E2BFF3020
:10067000230203183E2B3E08A300402B3808A3009A
:1006800023087923A3002308031D4A2BFF30A4006D
:10069000A5014F2B23086723A300A400A50124086C
:1006A00083128600BB010800003A03195B2B803AD5
:1006B0000319622B00341A08840083131B18831754
:1006C000000808001B088A001A0882000800A00021
:1006D000953EA00003300318013EA10020089A00B7
:1006E00021089B0080305423A20008302204A0007F
:1006F0000800A000A1010A302002031C862BA10AD9
:100700002008A200F6302207A0007B2B2108080059
:10071000A0000A302002031C932B2008A100F63011
:100720002107A000892B200808008034F1344434CC
:100730006034313422340234F03400342034023452
:10074000043403340000000000000000000000003A
:100750000000000000000000000000000000000099
:100760000000000000000000000000000000000089
:100770000000000000000000000000000000000079
:100780000000000000000000000000000000000069
:100790000000000000000000000000000000000059
:1007A0000000000000000000000000000000000049
:1007B0000000000000000000000000000000000039
:1007C0000000000000000000000000000000000029
:1007D0000000000000000000000000000000000019
:1007E0000000000000000000000000000000000009
:1007F00000000000000000000000000000000000F9
:02400E00FA3F77
:00000001FF
