:020000040000FA
:1000000000000228AB2908008E00030E83018D003A
:100010000A088A018C000408AC0083120B1D3D28DD
:10002000390881000B113E0803191A283E089C006C
:100030001C03BE003F08031921283F089C001C0335
:10004000BF0040080319282840089C001C03C0007A
:1000500033089C0034089D0001301C07B300B40134
:10006000B40D1D08B4070830831286063C08031936
:100070003D28851D3D28043085062C0884000C0889
:100080008A0083010D0E83008E0E0E0E09003308C8
:10009000A3003408A40003302402031D5128E830D3
:1000A0002302031C85283308A3003408A400183059
:1000B000A307FC300318FD30A4072308B30024086D
:1000C000B4003C08031968283C08A3002303BC00C3
:1000D000B50A3308A3003408A4000230A3070318AC
:1000E000A40A2308B3002408B4003C303502031CE2
:1000F0007B28B501B60A3C303602031C8128B601C4
:10010000B70A183037020318B70183168515A30103
:100110002308303EA40000300318013EA500240847
:1001200084008313251883170008A60023082D3E9A
:10013000A40000300318013EA500240884008313A6
:10014000251883170008A7002308E53EA400023005
:100150000318013EA50024089A0025089B00803062
:100160009922A8000030A5000130A4002808003C16
:100170000319BF28A40DA50D013E031CBA28831244
:100180000508A800A4050030A505240825040030B2
:1001900003190130A800A40001302602031C0E2917
:1001A0000530260203180E292603A50000308A0018
:1001B000DD30250703188A0A8200E128EB28F6289B
:1001C000042924080319E828A7010230A6000E29F3
:1001D0000130A6000E2924080319F3280330A600D5
:1001E0000130A7000E290130A6000E2924080319AA
:1001F00001290330A600FE30270203180E29A70AA2
:100200000E290430A6000E29240803190A290330F8
:10021000A6000E290130A600FF30A70026089A008C
:1002200027089B0023087722A30A03302302031C1C
:1002300088288316851108000A30AC2283128600B4
:10024000051400000000831205103808031D44291E
:10025000851400000000831285102F08A1000319E7
:100260003C29FF30210203183C293A08CD22A10085
:10027000AC228312860042293608CD22A100AC228E
:1002800083128600B80AAA293808013A031D5F299B
:100290002F08A10003195729FF30210203185729FD
:1002A0003A08BE22A100AC22831286005D293608DE
:1002B000BE22A100AC2283128600B80AAA293808FF
:1002C000023A031D7A292F08A10003197229FF3071
:1002D0002102031872293B08CD22A100AC2283120F
:1002E000860078293708CD22A100AC22831286002F
:1002F000B80AAA293808033A031DAA292F08A10021
:1003000003199829FF302102031898293B08BE22BF
:10031000A1002108031D91290A30AC228312860016
:10032000A9293B08BE22A100AC2283128600A9297C
:100330003708BE22A1002108031DA3290A30AC22E0
:1003400083128600A9293708BE22A100AC2283129D
:100350008600B80108000A30B900831686011430FF
:100360008500831286018501C13083168105390815
:10037000831281008B168B1786153C3035020318CB
:10038000B5013C3036020318B601183037020318A5
:10039000B701B301B401BA01BB01BC013D30BE00DD
:1003A0000530BF00C930C000B801A90101309A0072
:1003B00000309B0029087722A90A03302902031C78
:1003C000D6293E08031DE7293D30BE0047203F08DF
:1003D000031DED290530BF001C214008031DF32932
:1003E000C930C0002A223B08031DF9293A08031925
:1003F0000B2A3B083706031D072A3A083606031D59
:10040000072A3508031D072A5A30BC00EB223C0896
:10041000031D0B2AE8223308A9003408AA00013082
:100420002A02031D152AF430290203181A2AA901E9
:10043000AA011D2A0130A900AA012908AB002B0C32
:100440000318242A83128511031C282A8312851578
:10045000E12908002D089E002E089F0021301E0271
:10046000031C542A1E08FF3A0319AD013C08031966
:100470003B2ABC01762A2F089E001E0803194C2A2D
:10048000FF301E0203184C2ABA0A3C303A02031805
:10049000BA010130BD00762AB501B60A3C303602F9
:1004A000031C762AB601762A21301F02031C762A05
:1004B0001F08FF3A0319AE013C080319612ABC0169
:1004C000762A2F089E001E080319712AFF301E028B
:1004D0000318712ABB0A18303B02031C762ABB01A1
:1004E000762AB70A183037020318B70108009E00B1
:1004F0001B089F001A08A0001E082D3EA100003016
:100500000318013EA20021088400831322188317D8
:100510001F0880001E08303E9E0000300318013E78
:100520009F001E08840083131F1883172008800073
:100530000800003A0319A02A803A0319A72A0034B8
:100540001A08840083131B188317000808001B086F
:100550008A001A08820008009E00DA3E9E000230DF
:100560000318013E9F001E089A001F089B00803060
:100570009922A000083020049E0008009E009F01E0
:100580000A301E02031CCB2A9F0A1E08A000F63068
:1005900020079E00C02A1F0808009E000A301E0285
:1005A000031CD82A1E089F00F6301F079E00CE2A83
:1005B0001E0808008034F13444346034313422346D
:1005C0000234F03400342034F73402340434033479
:1005D00083160515080083160511080000000000A9
:1005E000000000000000000000000000000000000B
:1005F00000000000000000000000000000000000FB
:1006000000000000000000000000000000000000EA
:1006100000000000000000000000000000000000DA
:02400E00FA3F77
:00000001FF
